:060000000A128A11EE2F26
:100C1000F000831203130C1E0E2E0F2E092E0C1241
:100C2000700899000800683465346C346C346F3493
:100C3000203477346F3472346C34643421340034AB
:100C40007E088A007F0882000A128A1120260A1272
:100C50008A118000840A04087D0603190034FF0A03
:100C60000319FE0A242E8312031387018030A60085
:100C70002530A7000A128A1130270A128A112C3057
:100C800084003B3083120313A8000408A9000D3030
:100C9000AA002808840083130008AB00A80A2908CA
:100CA00084002B088000A90AAA0B492E8312031383
:100CB000B901BA016C2E39082C3E840000080A12D2
:100CC0008A1108260A128A11013083120313B90708
:100CD0000318BA0A0030BA0739082C3E840083137F
:100CE0000008031D742E752E5B2E0A300A128A111D
:100CF00008260A128A110D300A128A1108260A12D1
:100D00008A11063083120313AA001330A900AD30F4
:100D1000A800A80B892EA90B892EAA0B892E562E66
:100D20000A128A11002883120313A101F31F992EBE
:100D30009A2EA72EF009F109F209F309F00A031916
:100D4000F10A0319F20A0319F30AA101A10AF71F14
:100D5000AA2EAB2EBA2EF409F509F609F709F40A02
:100D60000319F50A0319F60A0319F70A0130FF00FF
:100D70007F08A1060030A5000030A4000030A300C9
:100D80000030A20073087204710470040319C92EA4
:100D9000CA2E172FA001A00ADA2E0130F800031086
:100DA000F00DF10DF20DF30DF80BCF2E0130FF0019
:100DB0007F08A007F31FDD2EDE2ECD2E0130F800B8
:100DC0000310A20DA30DA40DA50DF80BE02E7308C2
:100DD0007702031DF52E72087602031DF52E7108A9
:100DE0007502031DF52E70087402031CF82EF92EEF
:100DF000082F7008F4027108031C710FF5027208C5
:100E0000031C720FF6027308031C730FF7022214FF
:100E100001300310F30CF20CF10CF00CFF3E031D3B
:100E2000092F0130A002031D162F172FDE2E2108D7
:100E300003191B2F1C2F272FA209A309A409A509F9
:100E4000A20A0319A30A0319A40A0319A50A25086B
:100E5000F3002408F2002308F1002208F000080043
:100E60008316031307138717181298168312031398
:100E70002708803AFF00A5307F02031D412F8030F4
:100E800026020318442F452F752F831203132608BB
:100E9000F9002708FA000030FA1BFF30FB00FC00C5
:100EA00006300310F90DFA0DFB0DFC0DFF3E031D7E
:100EB000512F7C08F3007B08F2007A08F1007908D2
:100EC000F0000030F7003D30F6000930F50000304A
:100ED000F4000A128A1193260A128A117008FF3E42
:100EE0008316031399001811E92F8312031327089F
:100EF000803AFF00CB307F02031D802F0130260295
:100F00000318832F842FB42F831203132608F900AC
:100F10002708FA000030FA1BFF30FB00FC00043009
:100F20000310F90DFA0DFB0DFC0DFF3E031D902F74
:100F30007C08F3007B08F2007A08F1007908F000E1
:100F40000030F7003D30F6000930F5000030F400C5
:100F50000A128A1193260A128A117008FF3E83161C
:100F6000031399001815E92F831203132608F900BB
:100F70002708FA000030FA1BFF30FB00FC000230AB
:100F80000310F90DFA0DFB0DFC0DFF3E031DC02FE4
:100F90007C08F3007B08F2007A08F1007908F00081
:100FA0000030F7003D30F6000930F5000030F40065
:100FB0000A128A1193260A128A117008FF3E8316BC
:100FC0000313990018158316031787158316031347
:100FD0001816831203139817181608008313483045
:100FE000FD000630FE001330FF003B3084000A1283
:100FF0008A1124260A128A1183010A128A11332EB9
:04400E00D220FF3F7E
:00000001FF
