:100000000A128A11EA2F00308A000408840A820743
:0E001000003453347434613472347434003468
:100876008316031311141118412C422C3E2C080028
:100886008316031311151119492C4A2C462C0800FE
:100896008316031391149118512C522C4E2C0800D8
:1008A6008316031387150716283083120313940043
:1008B60009308316031393000800F0008312031314
:1008C6008C11700893008C1D692C6A2C662C83167B
:1008D600031311080800F100831203130710871091
:1008E6000715710888000711C730F0007A2CF00B45
:1008F600792C7D2C7E2C0800F1008312031307143B
:1009060087100715710888000711C730F0008B2C77
:10091600F00B8A2C8E2C8F2C0800F200F101721C31
:10092600952C962C9A2C7008FF007F08F10703106F
:10093600F00D0310F20C7208031DA22CA32C922CAE
:1009460071080800F5000F307505F3000A30F00055
:100956007508F40004300310F40CFF3E031DAE2CA2
:1009660074080A128A1190240A128A117307080061
:10097600F0008316031391159119C22CC32CBF2CBA
:10098600831203131308F1008316031391117008E1
:100996000319CE2CCF2CD12C9116D22C91121116D4
:1009A600111AD62CD72CD32C7108080083160313E2
:1009B60007108710071188010C300A128A116E245D
:1009C6000A128A1138300A128A116E240A128A1102
:1009D60080300A128A116E240A128A1101300A1214
:1009E6008A116E240A128A110800F300103073026D
:1009F6000318FE2CFF2C182D7208031D032D042D41
:100A06000C2D7308803E0A128A116E240A128A116E
:100A1600182D7203031D102D112D182D7308C03EBD
:100A26000A128A116E240A128A1108000A128A1101
:100A360053240A128A110A128A113B240A128A11B5
:100A4600D0300A128A1160240A128A1107300A125B
:100A56008A1160240A128A1100300A128A1160244F
:100A66000A128A110A128A1143240A128A110800EC
:100A7600F200F301F401F301F401542D7308720737
:100A860084000A128A1103200A128A110A128A1194
:100A96007F240A128A110130F3070318F40A003082
:100AA600F4077308720784000A128A1103200A12D7
:100AB6008A11003A031D602D612D412D0800700832
:100AC60071040319672D682D972DF401F40A762D0C
:100AD60001300310F00DF10DFF3E031D6C2D0130AA
:100AE600FF007F08F407F11F792D7A2D6B2D710811
:100AF6007302031D802D70087202031C832D842D42
:100B06008A2D7008F2027108031CF303F302013008
:100B16000310F10CF00CFF3E031D8B2D0130F40287
:100B2600031D962D972D7A2D7308F1007208F0009B
:100B36000800F401F501700871040319A32DA42D12
:100B4600DB2DF601F60AB22D01300310F00DF10D82
:100B5600FF3E031DA82D0130FF007F08F607F11F99
:100B6600B52DB62DA72D01300310F40DF50DFF3E62
:100B7600031DB72D71087302031DC32D7008720281
:100B8600031CC62DC72DCE2D7008F2027108031C5A
:100B9600F303F302741401300310F10CF00CFF3E62
:100BA600031DCF2D0130F602031DDA2DDB2DB62DE8
:100BB6007508F1007408F00008000A128A11D92499
:100BC6000A128A110A128A1119250A128A11F201C9
:100BD60000300A128A11F8240A128A1101300A1208
:100BE6008A113B250A128A110630FC001330FB00DD
:100BF600AD30FA00FA0BFD2DFB0BFD2DFC0BFD2D88
:100C0600042E01300A128A116E240A128A110A125F
:100C16008A11A2260A128A11F20100300A128A11DA
:100C2600F8240A128A117D08FA00FB017A08F700F7
:100C36007B08F8000A128A1126260A128A110A2E41
:100C46000A128A110028003078020A300319770246
:100C560003182E2E2F2E372E7708303E0A128A11B1
:100C66007F240A128A11A12E83120313C201C30123
:100C7600732E0A30F0000030F1007808F300770890
:100C8600F2000A128A1162250A128A117108831269
:100C96000313C1007008C0004208F9007907203E1E
:100CA6008400400883138000840A410880000A30CB
:100CB600F0000030F1007808F3007708F2000A121D
:100CC6008A119C250A128A117108F8007008F7002B
:100CD600013083120313C2070318C30A0030C30787
:100CE600003078020A300319770203187B2E7C2E17
:100CF6003C2E4208F9007907203E840077088313CA
:100D06008000840A780880009D2E4208F900790741
:100D1600203E840083130008303E0A128A117F2485
:100D26000A128A11FF3083120313C2070318C30A7B
:100D3600FF30C307C31FA02EA12E882E08000A125B
:100D46008A113B240A128A11D0300A128A116024B1
:100D56000A128A1100300A128A1160240A128A11B4
:100D66000A128A114B240A128A11D1300A128A11E8
:100D760060240A128A1101300A128A11BB240A124F
:100D86008A110A128A11A5240A128A11FD000A1272
:100D96008A1143240A128A110A128A113B240A1262
:100DA6008A11D0300A128A1160240A128A1101307F
:100DB6000A128A1160240A128A110A128A114B2415
:100DC6000A128A11D1300A128A1160240A128A1173
:100DD60001300A128A11BB240A128A110A128A11D8
:100DE600A5240A128A1183120313D1000A128A114A
:100DF60043240A128A110A128A113B240A128A1102
:100E0600D0300A128A1160240A128A1102300A129C
:100E16008A1160240A128A110A128A114B240A12B4
:100E26008A11D1300A128A1160240A128A110130FD
:100E36000A128A11BB240A128A110A128A11A524DF
:100E46000A128A1183120313D0000A128A1143244C
:100E56000A128A110A128A113B240A128A11D03008
:100E66000A128A1160240A128A1103300A128A11A0
:100E760060240A128A110A128A114B240A128A1154
:100E8600D1300A128A1160240A128A1101300A121C
:100E96008A11BB240A128A110A128A11A5240A127F
:100EA6008A1183120313CF000A128A1143240A12ED
:100EB6008A110A128A113B240A128A11D0300A12A8
:100EC6008A1160240A128A1104300A128A116024D7
:100ED6000A128A110A128A114B240A128A11D13077
:100EE6000A128A1160240A128A1101300A128A1122
:100EF600BB240A128A110A128A11A5240A128A111F
:100F060083120313CE000A128A1143240A128A118D
:100F16000A128A113B240A128A11D0300A128A1147
:100F260060240A128A1105300A128A1160240A12F4
:100F36008A110A128A114B240A128A11D1300A1216
:100F46008A1160240A128A1101300A128A11BB24FE
:100F56000A128A110A128A11A5240A128A11831208
:100F66000313CD000A128A1143240A128A110A12A7
:100F76008A113B240A128A11D0300A128A1160247F
:100F86000A128A1106300A128A1160240A128A117C
:100F96000A128A114B240A128A11D1300A128A11B6
:100FA60060240A128A1101300A128A11BB240A121D
:100FB6008A110A128A11A5240A128A1183120313AE
:100FC600CC000A128A1143240A128A110800FD0174
:100FD60083120313C401C501C601C701C801C901B3
:100FE600CA01CB01CC01CD01CE01CF01D001D10187
:0A0FF600D20183010A128A11E02DD6
:04400E00D220FF3E7F
:00000001FF
