:100000000A128A11F32F00308A000408840A82073A
:1000100000346434613420347334653474342034EF
:1000200074346734693461346E34003443344E348C
:100030000034203400342F3400343A340034543443
:0200400000348A
:100776008316031311141118C12BC22BBE2B0800AC
:100786008316031311151119C92BCA2BC62B080082
:100796008316031391149118D12BD22BCE2B08005C
:1007A600F0007008831203139300831603131418C2
:1007B600DD2BDE2BD82B08008316031307168715AF
:1007C6002830831203139400093083160313930011
:1007D6000800F1008312031307108710071571082C
:1007E60088000711C730F000F82BF00BF72BFB2B16
:1007F600FC2B0800F100831203130714871007155A
:10080600710888000711C730F000092CF00B082C7E
:100816000C2C0D2C0800F200F101721C132C142C68
:10082600182C7008FF007F08F1070310F00D031065
:10083600F20C7208031D202C212C102C71080800C4
:10084600F5000F307505F3000A30F0007508F40066
:1008560004300310F40CFF3E031D2C2C74080A12FE
:100866008A110E240A128A11730708000C300A1224
:100876008A11EC230A128A1138300A128A11EC23E3
:100886000A128A1180300A128A11EC230A128A117E
:1008960001300A128A11EC230A128A110800F000AC
:1008A600831603139115141C592C5A2C562C83129B
:1008B60003131308F100831603139111700803192B
:1008C600652C662C682C9116692C911211167108EC
:1008D6000800F300103073020318722C732C8C2C52
:1008E6007208031D772C782C802C7308803E0A1220
:1008F6008A11EC230A128A118C2C7203031D842C94
:10090600852C8C2C7308C03E0A128A11EC230A121D
:100916008A1108000A128A11DF230A128A110A12A2
:100926008A11BB230A128A11D0300A128A11D323E4
:100936000A128A1107300A128A11D3230A128A115F
:1009460000300A128A11D3230A128A110A128A1156
:10095600C3230A128A110800F400F201F301F2011E
:10096600F301C82C7208740784000A128A11032046
:100976000A128A110A128A11FD230A128A110130FB
:10098600F2070318F30A0030F307720874078400AD
:100996000A128A1103200A128A11003A031DD42C66
:1009A600D52CB52C0800700871040319DB2CDC2C3F
:1009B6000B2DF401F40AEA2C01300310F00DF10DB1
:1009C600FF3E031DE02C0130FF007F08F407F11FF6
:1009D600ED2CEE2CDF2C71087302031DF42C70082D
:1009E6007202031CF72CF82CFE2C7008F202710818
:1009F600031CF303F30201300310F10CF00CFF3E6D
:100A0600031DFF2C0130F402031D0A2D0B2DEE2CC5
:100A16007308F1007208F0000800F401F50170088F
:100A260071040319172D182D4F2DF601F60A262DE0
:100A360001300310F00DF10DFF3E031D1C2D01309A
:100A4600FF007F08F607F11F292D2A2D1B2D0130E7
:100A56000310F40DF50DFF3E031D2B2D71087302D7
:100A6600031D372D70087202031C3A2D3B2D422DB3
:100A76007008F2027108031CF303F30274140130C8
:100A86000310F10CF00CFF3E031D432D0130F6025E
:100A9600031D4E2D4F2D2A2D7508F1007408F00008
:100AA6000800003078020A300319770203185C2D1B
:100AB6005D2D652D7708303E0A128A11FD230A1234
:100AC6008A11CF2D83120313C201C301A12D0A304F
:100AD600F0000030F1007808F3007708F2000A12FF
:100AE6008A11D6240A128A11710883120313C100CF
:100AF6007008C0004208F9007907203E84004008CB
:100B060083138000840A410880000A30F000003018
:100B1600F1007808F3007708F2000A128A1110250E
:100B26000A128A117108F8007008F7000130831262
:100B36000313C2070318C30A0030C3070030780244
:100B46000A30031977020318A92DAA2D6A2D420827
:100B5600F9007907203E8400770883138000840A11
:100B660078088000CB2D4208F9007907203E8400E2
:100B760083130008303E0A128A11FD230A128A11D5
:100B8600FF3083120313C2070318C30AFF30C307DB
:100B9600C31FCE2DCF2DB62D0800831603130710C5
:100BA600871007118715071688010A128A1139243A
:100BB6000A128A110A128A118D240A128A11F20166
:100BC60000300A128A116C240A128A1101300A12A4
:100BD6008A11AF240A128A110630FC001330FB007A
:100BE600AD30FA00FA0BF52DFB0BF52DFC0BF52DB0
:100BF600FC2D01300A128A11EC230A128A110A12FC
:100C06008A11AB260A128A11F20100300A128A11E1
:100C16006C240A128A11831203134708FA00FB0197
:100C26007A08F7007B08F8000A128A1154250A127E
:100C36008A1115300A128A11AF240A128A118312F8
:100C460003134808FA00FB017A08F7007B08F8004E
:100C56000A128A1154250A128A1115300A128A11AB
:100C6600AF240A128A11831203134908FA00FB0102
:100C76007A08F7007B08F8000A128A1154250A122E
:100C86008A11F201F20A00300A128A116C240A1241
:100C96008A1102307D02031C512E522E652E17300A
:100CA6000A128A11AF240A128A117D08FA00FB0182
:100CB6007A08F7007B08F8000A128A1154250A12EE
:100CC6008A116B2E0E300A128A11AF240A128A116B
:100CD60011300A128A11AF240A128A1183120313E1
:100CE6004608FA00FB017A08F7007B08F8000A12AA
:100CF6008A1154250A128A1113300A128A11AF2456
:100D06000A128A11831203134508FA00FB017A08B6
:100D1600F7007B08F8000A128A1154250A128A1174
:100D260013300A128A11AF240A128A11831203138E
:100D36004408FA00FB017A08F7007B08F8000A125B
:100D46008A1154250A128A11022E0A128A110028C3
:100D56000A128A11BB230A128A11D0300A128A118A
:100D6600D3230A128A1100300A128A11D3230A12D7
:100D76008A110A128A11CB230A128A11D1300A1259
:100D86008A11D3230A128A1101300A128A115224B7
:100D96000A128A110A128A1123240A128A1183124C
:100DA6000313C9000A128A11C3230A128A110A12EE
:100DB6008A11BB230A128A11D0300A128A11D32350
:100DC6000A128A1101300A128A11D3230A128A11D1
:100DD6000A128A11CB230A128A11D1300A128A11F9
:100DE600D3230A128A1101300A128A1152240A12D6
:100DF6008A110A128A1123240A128A1183120313F2
:100E0600C8000A128A11C3230A128A110A128A1109
:100E1600BB230A128A11D0300A128A11D3230A126E
:100E26008A1102300A128A11D3230A128A110A126F
:100E36008A11CB230A128A11D1300A128A11D323BE
:100E46000A128A1101300A128A1152240A128A11D0
:100E56000A128A1123240A128A1183120313C70065
:100E66000A128A11C3230A128A110A128A11BB2393
:100E76000A128A11D0300A128A11D3230A128A1151
:100E860003300A128A11D3230A128A110A128A110E
:100E9600CB230A128A11D1300A128A11D3230A12DD
:100EA6008A1101300A128A1152240A128A110A1270
:100EB6008A1123240A128A11FD000A128A11C323F9
:100EC6000A128A110A128A11BB230A128A11D03019
:100ED6000A128A11D3230A128A1104300A128A11BD
:100EE600D3230A128A110A128A11CB230A128A11F3
:100EF600D1300A128A11D3230A128A1101300A123A
:100F06008A1152240A128A110A128A1123240A12F9
:100F16008A1183120313C6000A128A11C3230A1206
:100F26008A110A128A11BB230A128A11D0300A12B8
:100F36008A11D3230A128A1105300A128A11D32381
:100F46000A128A110A128A11CB230A128A11D13087
:100F56000A128A11D3230A128A1101300A128A113F
:100F660052240A128A110A128A1123240A128A1199
:100F760083120313C5000A128A11C3230A128A11A7
:100F86000A128A11BB230A128A11D0300A128A1158
:100F9600D3230A128A1106300A128A11D3230A129F
:100FA6008A110A128A11CB230A128A11D1300A1227
:100FB6008A11D3230A128A1101300A128A11522485
:100FC6000A128A110A128A1123240A128A1183121A
:100FD6000313C4000A128A11C3230A128A110800D5
:100FE600FD0183120313C401C501C601C701C8016F
:0A0FF600C90183010A128A11D02DEF
:04400E00F223FF3F5B
:00000001FF
