:060000000A128A11FB2F19
:100F8400F0007008831203178D00831603178C1367
:100F94000C14831203170C0808001630F000F0300C
:100FA4000A128A11E1270A128A11F0300A128A11F0
:100FB400C2270A128A11F2000A128A110028F100CB
:100FC4007108831203178D0070088C0083160317B1
:100FD4008C130C158B1355308D00AA308D008C1496
:100FE4000C11831203130D1EF82FF92FF32F0D0884
:0C0FF4000800F20183010A128A11CF2FBD
:02400E003A3F37
:00000001FF
