:100000000A128A11F02F00308A000408840A82073D
:100010000034203420342034203420342034203460
:0A002000003474347234613400348B
:1005DC00003409340130831203139F0080308316DA
:1005EC0003139F000800F0008312031307108710F9
:1005FC0007157008880007110800F0008312031318
:10060C00071487100715700888000711080083125B
:10061C0003131F151F19132B142B102B1E08F1007D
:10062C00831603131E08F00008000C300A128A11FE
:10063C00F9220A128A1138300A128A11F9220A1286
:10064C008A1180300A128A11F9220A128A110800C2
:10065C00F200103072020318342B352B4E2B71081C
:10066C00031D392B3A2B422B7208803E0A128A1139
:10067C00F9220A128A114E2B7103031D462B472BAC
:10068C004E2B7208C03E0A128A11F9220A128A11E4
:10069C000800F300F101F201F101F201682B71087D
:1006AC00730784000A128A1103200A128A110A1293
:1006BC008A1103230A128A110130F1070318F20A76
:1006CC000030F2077108730784000A128A110320A4
:1006DC000A128A11003A031D742B752B552B080036
:1006EC007008710403197B2B7C2BAB2BF401F40ADF
:1006FC008A2B01300310F00DF10DFF3E031D802BF2
:10070C000130FF007F08F407F11F8D2B8E2B7F2B00
:10071C0071087302031D942B70087202031C972B33
:10072C00982B9E2B7008F2027108031CF303F30242
:10073C0001300310F10CF00CFF3E031D9F2B013018
:10074C00F402031DAA2BAB2B8E2B7308F10072083D
:10075C00F0000800F401F501700871040319B72BBF
:10076C00B82BEF2BF601F60AC62B01300310F00D57
:10077C00F10DFF3E031DBC2B0130FF007F08F60777
:10078C00F11FC92BCA2BBB2B01300310F40DF50D37
:10079C00FF3E031DCB2B71087302031DD72B700872
:1007AC007202031CDA2BDB2BE22B7008F2027108AD
:1007BC00031CF303F302741401300310F10CF00C5E
:1007CC00FF3E031DE32B0130F602031DEE2BEF2B36
:1007DC00CA2B7508F1007408F0000800031083128E
:1007EC0003133C0D3D0DC3004308031DFE2BFF2BD3
:1007FC00082C0030BD000030BC000030BB000030C5
:10080C00BA006B2C3A08BE003B08BF003C08C00085
:10081C003D08C1001F300310C10CC00CBF0CBE0C36
:10082C00FF3E031D112C3E08C200BC17FF30BA0559
:10083C00FF30BB05FF30BC050030BD059630C30250
:10084C00C31F292C2A2C442C4308803A973E0318AA
:10085C00302C312C322CFF2B01300310BD0CBC0C76
:10086C00BB0CBA0CFF3E031D332C0130FF007F087C
:10087C00C307031D422C432C322C5B2C203043022B
:10088C00031C492C4A2C562CFF2B0130BE000310A4
:10089C00BA0DBB0DBC0DBD0DBE0B4D2C0130C302F2
:1008AC004308031D5A2C5B2C4B2C420803195F2C5C
:1008BC00602C6B2CBA09BB09BC09BD09BA0A031917
:1008CC00BB0A0319BC0A0319BD0A080000307802E0
:1008DC000A30031977020318742C752C7D2C7708B9
:1008EC00303E0A128A1103230A128A11E72C831252
:1008FC000313C201C301B92C0A30F0000030F1001F
:10090C007808F3007708F2000A128A1176230A128B
:10091C008A11710883120313C1007008C0004208C9
:10092C00F9007907203E8400400883138000840A74
:10093C00410880000A30F0000030F1007808F30024
:10094C007708F2000A128A11B0230A128A11710870
:10095C00F8007008F700013083120313C207031864
:10096C00C30A0030C307003078020A30031977023B
:10097C000318C12CC22C822C4208F9007907203EA6
:10098C008400770883138000840A78088000E32CA5
:10099C004208F9007907203E840083130008303E9A
:1009AC000A128A1103230A128A11FF3083120313CD
:1009BC00C2070318C30AFF30C307C31FE62CE72C7A
:1009CC00CE2C0800831603138701880183120313AE
:1009DC0088010A128A111B230A128A110A128A111F
:1009EC00F0220A128A110A128A110D230A128A1194
:1009FC00710883120313C5007008C4004408F0008A
:100A0C004508F100F201F30100300A128A11692540
:100A1C000A128A11730883120313A7007208A60026
:100A2C007108A5007008A4004030A3000430A20097
:100A3C004430A1004430A0000A128A1121260A1267
:100A4C008A11831203132308BD002208BC0021085D
:100A5C00BB002008BA000A128A11F4230A128A1168
:100A6C00831203133B08C5003A08C400F10100309F
:100A7C000A128A112E230A128A11831203134508B3
:100A8C00F8004408F7000A128A116C240A128A1121
:100A9C004F2D502D000001300A128A114F230A12DB
:100AAC008A11F101F10A00300A128A112E230A125E
:100ABC008A1109300A128A114F230A128A11F92C51
:100ACC000A128A110028F800780803196E2D6F2D70
:100ADC00832DF31F722D732D832D7009FA0071096C
:100AEC00FB007209FC007309FD00FA0A0319FB0AEA
:100AFC000319FC0A0319FD0A8B2D7308FD007208FB
:100B0C00FC007108FB007008FA0073087204710491
:100B1C007004031D922D932D9C2D0030F30000309A
:100B2C00F2000030F1000030F000202E9630F90079
:100B3C00AC2D0130FF007F08F90701300310FD0CCC
:100B4C00FC0CFB0CFA0CFF3E031DA42DFE307D05A6
:100B5C00031DB12DB22D9F2DCE2D0130FF007F082E
:100B6C00F9070130FA07003003180130FB07003099
:100B7C0003180130FC07003003180130FD07013069
:100B8C000310FD0CFC0CFB0CFA0CFF3E031DC62DD8
:100B9C00FF307D05031DD32DD42DB32DE02D013059
:100BAC00F9020130F4000310FA0DFB0DFC0DFD0DE4
:100BBC00F40BD92DFC1BE32DE42DEA2D0230790228
:100BCC000318E92DEA2DD52D7918ED2DEE2DF62DE6
:100BDC00FF30FA05FF30FB057F30FC05FF30FD05CB
:100BEC000310F90C7908F400F501F601F70118303F
:100BFC000310F40DF50DF60DF70DFF3E031DFE2D44
:100C0C007408FA047508FB047608FC047708FD04E4
:100C1C0078080319122E132E182EF31F162E172ECA
:100C2C00182EFD177D08F3007C08F2007B08F100FC
:100C3C007A08F00008008312031327088039B100EA
:100C4C002708A8002807B800A61F2D2E2E2E2F2E01
:100C5C00381438080319332E342E442E380A031D49
:100C6C00382E392E412E0030A7000030A60000305F
:100C7C00A5000030A400A617A7014C2E0030A70039
:100C8C000030A6000030A5000030A40023088039F5
:100C9C00FF007F08B1062308A8002807B900A21F8F
:100CAC00582E592E5A2E3914390803195E2E5F2EE0
:100CBC006F2E390A031D632E642E6C2E0030A30098
:100CCC000030A2000030A1000030A000A217A30148
:100CDC00772E0030A3000030A2000030A1000030BD
:100CEC00A0002308220421042004031D7E2E7F2E45
:100CFC00982E0030A7000030A6000030A500003070
:100D0C00A4008030A6047F30A7043108FF007F08C0
:100D1C00A7042708A3002608A2002508A100240880
:100D2C00A000EF2F3808031D9C2E9D2EA62E003000
:100D3C00A3000030A2000030A1000030A000EF2F73
:100D4C003808A800A9012908AB0039082802AA0014
:100D5C00031CAB032A087F3EB2002B080318013E8C
:100D6C00003EB3002708B0002608AF002508AE00EF
:100D7C002408AD000030A7000030A6000030A5000C
:100D8C000030A4000030B7000030B6000030B500D1
:100D9C000030B400B9011C2F39080319D62ED72EF8
:100DAC00F72E0130A8000310AD0DAE0DAF0DB00D38
:100DBC00A80BD92E0130A8000310A40DA50DA60D6B
:100DCC00A70DA80BE22EB71FEC2EED2EEE2E241441
:100DDC000130A8000310B40DB50DB60DB70DA80B5E
:100DEC00F02E23083002031D052F22082F02031DAD
:100DFC00052F21082E02031D052F20082D02031C90
:100E0C00082F092F182F37172008AD022108031CB3
:100E1C00210FAE022208031C220FAF022308031C71
:100E2C00230FB0020130FF007F08B9071A303902D6
:100E3C00031C212F222FD22E30082F042E042D0418
:100E4C000319292F2A2F492F3414492F0130A800B8
:100E5C000310A40DA50DA60DA70DA80B2E2FB71FC3
:100E6C00382F392F3A2F24140130A8000310B40D59
:100E7C00B50DB60DB70DA80B3C2FFF30B2070318FC
:100E8C00B30AFF30B307A61F4C2F4D2F2C2FB901DF
:100E9C00B71F512F522F6E2FFF303405A800FF3093
:100EAC003505A900FF303605AA007F303705AB00A9
:100EBC002B082A04290428040319652F662F692F8F
:100ECC00B901B90A6E2F241C6C2F6D2F6E2F662F53
:100EDC0039080319722F732FA42F0130A407003087
:100EEC0003180130A507003003180130A6070030A5
:100EFC0003180130A707271C842F852FA42F240843
:100F0C00A8002508A9002608AA002708AB00013074
:100F1C00AC002B0DAB0CAA0CA90CA80CAC0B8F2F96
:100F2C002B08A7002A08A6002908A5002808A40059
:100F3C000130B2070318B30A0030B3073308803A04
:100F4C00FF0080307F02031DAD2FFF303202031CE7
:100F5C00B02FB12FBF2FFF3083120313B20000301C
:100F6C00B3000030A7000030A6000030A500003010
:100F7C00A400831203133308803AFF0080307F02F1
:100F8C00031DCA2F013032020318CD2FCE2FDB2FB9
:100F9C0083120313B201B3010030A7000030A60086
:100FAC000030A5000030A400B101831203133208F5
:100FBC00B800381CE22FE32FE52FA617E92F7F305E
:100FCC00FF007F08A6053808A8000310280CA7000E
:100FDC008B2E08000A128A11EE220A128A11C60000
:100FEC000A128A11EF220A128A11C70083010A120F
:040FFC008A11E82C42
:00000001FF
