:100000000A128A11F02F00308A000408840A82073D
:10001000003463346F3475346E3474343D340034DA
:100C440040344234F0008312031307108710071551
:100C54007008880007112E2E2F2E0800F000831232
:100C640003130714871007157008880007113A2E1C
:100C74003B2E08000C300A128A1124260A128A110B
:100C840038300A128A1124260A128A1180300A1274
:100C94008A1124260A128A110800F2001030720206
:100CA4000318552E562E6F2E7108031D5A2E5B2ED7
:100CB400632E7208803E0A128A1124260A128A11AF
:100CC4006F2E7103031D672E682E6F2E7208C03EAF
:100CD4000A128A1124260A128A110800F100F2016C
:100CE400F301F201F301892E7208710784000A12DC
:100CF4008A1103200A128A110A128A1130260A1252
:100D04008A110130F2070318F30A0030F30772085E
:100D1400710784000A128A1103200A128A11003A08
:100D2400031D952E962E762E080070087104031963
:100D34009C2E9D2ECC2EF401F40AAB2E0130031010
:100D4400F00DF10DFF3E031DA12E0130FF007F08C1
:100D5400F407F11FAE2EAF2EA02E71087302031DEF
:100D6400B52E70087202031CB82EB92EBF2E70085F
:100D7400F2027108031CF303F30201300310F10CB7
:100D8400F00CFF3E031DC02E0130F402031DCB2ED8
:100D9400CC2EAF2E7308F1007208F0000800F401A5
:100DA400F501700871040319D82ED92E102FF601FD
:100DB400F60AE72E01300310F00DF10DFF3E031D7E
:100DC400DD2E0130FF007F08F607F11FEA2EEB2E1F
:100DD400DC2E01300310F40DF50DFF3E031DEC2E47
:100DE40071087302031DF82E70087202031CFB2E97
:100DF400FC2E032F7008F2027108031CF303F302A4
:100E0400741401300310F10CF00CFF3E031D042F89
:100E14000130F602031D0F2F102FEB2E7508F10081
:100E24007408F00008008316031385018701880104
:100E34008312031388018316031306148510831287
:100E440003138501FA01FB010A128A113C260A12D6
:100E54008A11F10100300A128A114F260A128A11EE
:100E640001300A128A1170260A128A11F101063021
:100E74000A128A114F260A128A110030F700F8006C
:100E84000A128A1174270A128A118312031306188C
:100E94004C2F4D2F472F0130FA070318FB0A00305F
:100EA400FB07F10106300A128A114F260A128A1131
:100EB4007B08F8007A08F7000A128A1174270A12CC
:100EC4008A1183120313061C682F692F632F7A1863
:100ED4006C2F6D2F6F2F8514472F8510472F0A1203
:100EE4008A110028003078020A30031977020318A7
:100EF4007C2F7D2F852F7708303E0A128A113026E9
:100F04000A128A11EF2F83120313C201C301C12FE6
:100F14000A30F0000030F1007808F3007708F2009E
:100F24000A128A1197260A128A117108831203136E
:100F3400C1007008C0004208F9007907203E84000F
:100F4400400883138000840A410880000A30F000BE
:100F54000030F1007808F3007708F2000A128A11D1
:100F6400D1260A128A117108F8007008F7000130BE
:100F740083120313C2070318C30A0030C3070030E7
:100F840078020A30031977020318C92FCA2F8A2F4F
:100F94004208F9007907203E840077088313800013
:100FA400840A78088000EB2F4208F9007907203E74
:100FB400840083130008303E0A128A1130260A1274
:100FC4008A11FF3083120313C2070318C30AFF30C8
:100FD400C307C31FEE2FEF2FD62F08000A128A1162
:100FE40022260A128A11FC000A128A1123260A12E6
:0C0FF4008A11FD0083010A128A11152FDA
:02400E003A3F37
:00000001FF
