:060000000A128A110C280F
:10000800FE00030EF4000A08F5000A128A111728E8
:100018000A128A110F28F001F101F201F30183019C
:100028000A128A1171280B1D1A281B282A288B1ED0
:100038001E281F282A280130F2070318F30A003067
:10004800F307E1308312031381000B1183120313AA
:100058000C1C2F2830283F288B1E332834283F2893
:100068000130F0070318F10A0030F107FE308F0065
:100078000C308E000C1072037304031D44284528AD
:1000880054280310061C031403184B284F28831206
:10009800031306145228831203130610F201F30106
:1000A800023070067104031D5A285B286A28031061
:1000B800861C031403186128652883120313861409
:1000C8006828831203138610F001F10175088A006D
:1000D800740E8300FE0E7E0E09008316031386013C
:1000E8008312031386010A128A11A5200A128A11A3
:1000F8000130F6000030F7000A128A118C200A122B
:100108008A118312031386097C280A128A110C2883
:10011800962806308312031391008C108C1C9528A6
:1001280096289228FF30F6070318F70AFF30F707DA
:10013800760A031DA328770A031DA328A4288D285F
:1001480008008B13831603138C10831203138C106F
:100158001213921212129211121592101214080010
:02400E003A3F37
:00000001FF
