:060000000A128A11EE2F26
:100DBE00C034F934A434B034993492348234F834D3
:100DCE00803490347E088A007F0882000A128A11CD
:100DDE00E9260A128A118000840A04087D06031986
:100DEE000034FF0A0319FE0AED2E83160313860143
:100DFE008701FC01FD017D08F8007C08F7000A124E
:100E0E008A116A270A128A11023083120313AC0068
:100E1E004530AB00A930AA00AA0B132FAB0B132F32
:100E2E00AC0B132F0130FC070318FD0A0030FD0731
:100E3E007D08803AFF0080307F02031D282F64302A
:100E4E007C02031C2B2F2C2F022F002F0A128A112B
:100E5E000028700871040319352F362F652FF40101
:100E6E00F40A442F01300310F00DF10DFF3E031D67
:100E7E003A2F0130FF007F08F407F11F472F482F4C
:100E8E00392F71087302031D4E2F70087202031C56
:100E9E00512F522F582F7008F2027108031CF303C2
:100EAE00F30201300310F10CF00CFF3E031D592F1D
:100EBE000130F402031D642F652F482F7308F100D3
:100ECE007208F00008000A30F0000030F1007808D7
:100EDE00F3007708F2000A128A11AA270A128A1161
:100EEE007108FB007008FA007A08203E8400831314
:100EFE00000883120313860007145330F900F90B10
:100F0E00862F8312031307100A30F0000030F10011
:100F1E007808F3007708F2000A128A1130270A12B5
:100F2E008A117108F8007008F7007708203E8400D7
:100F3E008313000883120313860087145330F900BD
:100F4E00F90BA72F0800F401F501700871040319BD
:100F5E00B12FB22FE92FF601F60AC02F0130031080
:100F6E00F00DF10DFF3E031DB62F0130FF007F087F
:100F7E00F607F11FC32FC42FB52F01300310F40D48
:100F8E00F50DFF3E031DC52F71087302031DD12FF2
:100F9E0070087202031CD42FD52FDC2F7008F202BA
:100FAE007108031CF303F302741401300310F10CE7
:100FBE00F00CFF3E031DDD2F0130F602031DE82F5E
:100FCE00E92FC42F7508F1007408F0000800831390
:100FDE002A30FD000630FE00DF30FF002030840096
:100FEE000A128A11ED260A128A1183010A128A1137
:020FFE00FC2EC7
:02400E003A3F37
:00000001FF
