:060000000A128A11FC2F18
:10003A00831203139D151D159210121012158316A3
:10004A00031387100800831203132608F9002708F0
:10005A00FA002808FB002908FC0002300310F90DF9
:10006A00FA0DFB0DFC0DFF3E031D33280230031071
:10007A00F90DFA0DFB0DFC0DFF3E031D3C287C0813
:10008A00F3007B08F2007A08F1007908F0000030EA
:10009A00F7003D30F6000930F5000030F4000A128E
:1000AA008A11E3200A128A117008FF3E831603138D
:1000BA00920083120313270883160313A1008312E5
:1000CA000313260883160313A000080003108312E3
:1000DA000313660D670DED006D08031D752876285C
:1000EA007F280030E7000030E6000030E5000030ED
:1000FA00E400E2286408E8006508E9006608EA0006
:10010A006708EB001F300310EB0CEA0CE90CE80C53
:10011A00FF3E031D88286808EC00E617FF30E40557
:10012A00FF30E505FF30E6050030E7059630ED02C1
:10013A00ED1FA028A128BB286D08803A973E031816
:10014A00A728A828A928762801300310E70CE60C6E
:10015A00E50CE40CFF3E031DAA280130FF007F08CE
:10016A00ED07031DB928BA28A928D22820306D0224
:10017A00031CC028C128CD2876280130E8000310C6
:10018A00E40DE50DE60DE70DE80BC4280130ED029C
:10019A006D08031DD128D228C2286C080319D62855
:1001AA00D728E228E409E509E609E709E40A031978
:1001BA00E50A0319E60A0319E70A0800831203137A
:1001CA00A101F31FE928EA28F728F009F109F20941
:1001DA00F309F00A0319F10A0319F20A0319F30AD7
:1001EA00A101A10AF71FFA28FB280A29F409F5092F
:1001FA00F609F709F40A0319F50A0319F60A0319A5
:10020A00F70A0130FF007F08A1060030A500003080
:10021A00A4000030A3000030A20073087204710425
:10022A007004031919291A296729A001A00A2A2981
:10023A000130F8000310F00DF10DF20DF30DF80B7B
:10024A001F290130FF007F08A007F31F2D292E293F
:10025A001D290130F8000310A20DA30DA40DA50D50
:10026A00F80B302973087702031D452972087602B4
:10027A00031D452971087502031D4529700874027A
:10028A00031C4829492958297008F4027108031CDB
:10029A00710FF5027208031C720FF6027308031C31
:1002AA00730FF702221401300310F30CF20CF10C55
:1002BA00F00CFF3E031D59290130A002031D6629D7
:1002CA0067292E29210803196B296C297729A20984
:1002DA00A309A409A509A20A0319A30A0319A40ACE
:1002EA000319A50A2508F3002408F2002308F100DF
:1002FA002208F00008000430831203136F02003052
:10030A0003196E0203188A298B292D2A6E08A60062
:10031A006F08A700A801A90100300A128A112E222B
:10032A000A128A11831203132908B7002808B60093
:10033A002708B5002608B4004430B3007F30B20065
:10034A00C030B1000030B0000A128A11E8220A1245
:10035A008A11831203133308D1003208D0003108FE
:10036A00CF003008CE000030F7003D30F6000930EB
:10037A00F5000030F400831603132108A3002008B7
:10038A00A2000310A20DA30D0310A20DA30D2208B3
:10039A00F0002308F1000030F11BFF30F200F300F7
:1003AA000A128A11E3200A128A11730883120313AC
:1003BA00A9007208A8007108A7007008A6000130F9
:1003CA000A128A112E220A128A1183120313290889
:1003DA00CD002808CC002708CB002608CA000A123C
:1003EA008A11B7240A128A11831203134D08E700EF
:1003FA004C08E6004B08E5004A08E4000A128A1194
:10040A006B200A128A11831203136508EF0064082D
:10041A00EE009D126E18122A162A831203131D1655
:10042A00192A831203131D126F0883160313A300DC
:10043A00831203136E0883160313A2000310A30C7E
:10044A00A20C0310A30CA20C2208831203139B0014
:10045A00080083120313AA002A080319352A362A28
:10046A004A2AA91F392A3A2A4A2A2609AC00270900
:10047A00AD002809AE002909AF00AC0A0319AD0A7C
:10048A000319AE0A0319AF0A522A2908AF0028082D
:10049A00AE002708AD002608AC0029082804270466
:1004AA002604031D592A5A2A632A0030A90000305B
:1004BA00A8000030A7000030A600E72A9630AB005B
:1004CA00732A0130FF007F08AB0701300310AF0C1D
:1004DA00AE0CAD0CAC0CFF3E031D6B2AFE302F0593
:1004EA00031D782A792A662A952A0130FF007F0897
:1004FA00AB070130AC07003003180130AD070030FC
:10050A0003180130AE07003003180130AF0701307D
:10051A000310AF0CAE0CAD0CAC0CFF3E031D8D2AC4
:10052A00FF302F05031D9A2A9B2A7A2AA72A01300F
:10053A00AB020130F9000310AC0DAD0DAE0DAF0DDD
:10054A00F90BA02AAE1BAA2AAB2AB12A02302B0227
:10055A000318B02AB12A9C2A2B18B42AB52ABD2A14
:10056A00FF30AC05FF30AD057F30AE05FF30AF057B
:10057A000310AB0C2B08F900FA01FB01FC0118303F
:10058A000310F90DFA0DFB0DFC0DFF3E031DC52AE4
:10059A007908AC047A08AD047B08AE047C08AF0481
:1005AA002A080319D92ADA2ADF2AA91FDD2ADE2A0C
:1005BA00DF2AAF172F08A9002E08A8002D08A700C8
:1005CA002C08A60008008312031337088039C100DB
:1005DA003708B8003807C800B61FF42AF52AF62AE1
:1005EA00481448080319FA2AFB2A0B2B480A031D48
:1005FA00FF2A002B082B0030B7000030B60000306D
:10060A00B5000030B400B617B701132B0030B7009D
:10061A000030B6000030B5000030B400330880392D
:10062A00FF007F08C1063308B8003807C900B21FA7
:10063A001F2B202B212B491449080319252B262B64
:10064A00362B490A031D2A2B2B2B332B0030B300E0
:10065A000030B2000030B1000030B000B217B30170
:10066A003E2B0030B3000030B2000030B100003041
:10067A00B0003308320431043004031D452B462BE5
:10068A005F2B0030B7000030B6000030B5000030F4
:10069A00B4008030B6047F30B7044108FF007F08F9
:1006AA00B7043708B3003608B2003508B100340879
:1006BA00B000B62C4808031D632B642B6D2B003049
:1006CA00B3000030B2000030B1000030B000B62CE8
:1006DA004808B800B9013908BB0049083802BA000D
:1006EA00031CBB033A087F3EC2003B080318013EC5
:1006FA00003EC3003708C0003608BF003508BE00F8
:10070A003408BD000030B7000030B6000030B50034
:10071A000030B4000030C7000030C6000030C50009
:10072A000030C400C901E32B490803199D2B9E2BF5
:10073A00BE2B0130B8000310BD0DBE0DBF0DC00D9C
:10074A00B80BA02B0130B8000310B40DB50DB60DCF
:10075A00B70DB80BA92BC71FB32BB42BB52B341469
:10076A000130B8000310C40DC50DC60DC70DB80B76
:10077A00B72B33084002031DCC2B32083F02031D5E
:10078A00CC2B31083E02031DCC2B30083D02031C42
:10079A00CF2BD02BDF2B47173008BD023108031CA3
:1007AA00310FBE023208031C320FBF023308031C8A
:1007BA00330FC0020130FF007F08C9071A3049020F
:1007CA00031CE82BE92B992B40083F043E043D0407
:1007DA000319F02BF12B102C4414102C0130B80003
:1007EA000310B40DB50DB60DB70DB80BF52BC71F19
:1007FA00FF2B002C012C34140130B8000310C40D57
:10080A00C50DC60DC70DB80B032CFF30C207031860
:10081A00C30AFF30C307B61F132C142CF32BC901CC
:10082A00C71F182C192C352CFF304405B800FF308F
:10083A004505B900FF304605BA007F304705BB00C1
:10084A003B083A043904380403192C2C2D2C302C7B
:10085A00C901C90A352C341C332C342C352C2D2CC7
:10086A0049080319392C3A2C6B2C0130B407003093
:10087A0003180130B507003003180130B6070030FD
:10088A0003180130B707371C4B2C4C2C6B2C34083F
:10089A00B8003508B9003608BA003708BB0001307D
:1008AA00BC003B0DBB0CBA0CB90CB80CBC0B562CDB
:1008BA003B08B7003A08B6003908B5003808B40052
:1008CA000130C2070318C30A0030C3074308803A3D
:1008DA00FF0080307F02031D742CFF304202031C8C
:1008EA00772C782C862CFF3083120313C200003039
:1008FA00C3000030B7000030B6000030B500003049
:10090A00B400831203134308803AFF0080307F0249
:10091A00031D912C013042020318942C952CA22C11
:10092A0083120313C201C3010030B7000030B600BE
:10093A000030B5000030B400C1018312031342082D
:10094A00C800481CA92CAA2CAC2CB617B02C7F3096
:10095A00FF007F08B6054808B8000310380CB70036
:10096A00522B0800831203134D088039D7004D0813
:10097A00D2005207DD00CC1FC32CC42CC52C5D1439
:10098A005D080319C92CCA2CD92C5D0A031DCE2C6B
:10099A00CF2CD72C0030CD000030CC000030CB005B
:1009AA000030CA00CC17E12C0030CD000030CC005A
:1009BA000030CB000030CA0051088039FF007F08A0
:1009CA00D7065108D2005207DC00D01FED2CEE2CBE
:1009DA00EF2C5C145C080319F32CF42C032D5C0A2D
:1009EA00031DF82CF92C012D0030D1000030D00065
:1009FA000030CF000030CE00D0170B2D0030D100D0
:100A0A000030D0000030CF000030CE005C0803195F
:100A1A000F2D102D152D5D08031D142D152D1E2DBE
:100A2A000030CD000030CC000030CB000030CA00CE
:100A3A00FB2F4A08F00050080A128A15AE270A123C
:100A4A008A11710883120313E3007008E200620836
:100A5A00D200D301D401D5015508DB005408DA00CD
:100A6A005308D9005208D8006308D200D301D40130
:100A7A00D5015508E1005408E0005308DF00520888
:100A8A00DE004B08F0004F080A128A15AE270A1238
:100A9A008A11710883120313E3007008E2006208E6
:100AAA00D200D301D401D5015208D8075308031143
:100ABA000318013E0319622DD907540803110318BC
:100ACA00013E0319692DDA07550803110318013E7F
:100ADA000319702DDB076308D200D301D401D501B5
:100AEA005208DE07530803110318013E03197E2D2D
:100AFA00DF07540803110318013E0319852DE00787
:100B0A00550803110318013E03198C2DE1074C08FF
:100B1A00F0004E080A128A15AE270A128A117108C5
:100B2A0083120313E3007008E2006208D200D301C3
:100B3A00D401D5015208D807530803110318013EFE
:100B4A000319A82DD907540803110318013E0319E4
:100B5A00AF2DDA07550803110318013E0319B62D04
:100B6A00DB076308D200D301D401D5015208DE079E
:100B7A00530803110318013E0319C42DDF07540853
:100B8A0003110318013E0319CB2DE0075508031181
:100B9A000318013E0319D22DE1070830D2000310D1
:100BAA00D80DD90DDA0DDB0DD20BD42D4B08F00080
:100BBA004E080A128A15AE270A128A117108831280
:100BCA000313E3007008E2006208D2006308D3004E
:100BDA00D401D5015208D807530803110318013E5E
:100BEA000319F82DD907540803110318013E0319F4
:100BFA00FF2DDA07550803110318013E0319062EC3
:100C0A00DB074A08F0004F080A128A15AE270A12B3
:100C1A008A11710883120313E3007008E200620864
:100C2A00D2006308D300D401D5015208D80753086B
:100C3A0003110318013E0319232ED907540803117F
:100C4A000318013E03192A2EDA075508031103185F
:100C5A00013E0319312EDB070830D2000310D80DEC
:100C6A00D90DDA0DDB0DD20B332E4A08F0004E08EF
:100C7A000A128A15AE270A128A11710883120313FF
:100C8A00E3007008E2006208D2006308D300D401CE
:100C9A00D5015208D807530803110318013E031956
:100CAA00572ED907540803110318013E03195E2E63
:100CBA00DA07550803110318013E0319652EDB07ED
:100CCA004B08F00050080A128A15AE270A128A1138
:100CDA00710883120313E3007008E2006208D2006D
:100CEA006308D300D401D5015208DE075308031163
:100CFA000318013E0319822EDF0754080311031853
:100D0A00013E0319892EE007550803110318013E15
:100D1A000319902EE1074C08F0004F080A128A15B1
:100D2A00AE270A128A11710883120313E3007008AE
:100D3A00E2006208D2006308D300D401D501520848
:100D4A00DE07530803110318013E0319AD2EDF070E
:100D5A00540803110318013E0319B42EE00755087D
:100D6A0003110318013E0319BB2EE1074C08F000DA
:100D7A0050080A128A15AE270A128A1171088312BC
:100D8A000313E3007008E2006208D2006308D3008C
:100D9A00D401D50108300310D20DD30DD40DD50DD1
:100DAA00FF3E031DD02E5208DE0753080311031815
:100DBA00013E0319E12EDF07540803110318013E0F
:100DCA000319E82EE007550803110318013E031919
:100DDA00EF2EE1075808D2005908D3005A08D40068
:100DEA005B08D50018300310D50CD40CD30CD20CE8
:100DFA00FF3E031DF82E5208DE075308031103189D
:100E0A00013E0319092FDF07540803110318013E95
:100E1A000319102FE007550803110318013E03199F
:100E2A00172FE1070830D2000310D80DD90DDA0DBB
:100E3A00DB0DD20B192F5D085C07D200D301D30D4D
:100E4A005208823EE20053080318013EFF3EE300C7
:100E5A004B2F0130D2000310DE0DDF0DE00DE10D46
:100E6A00D20B302FDB1F3A2F3B2F3C2F5E14013061
:100E7A00D2000310D80DD90DDA0DDB0DD20B3E2F9F
:100E8A00FF30E2070318E30AFF30E307E01F4E2FA3
:100E9A004F2F2E2FDC01DB1F532F542F702FFF30C3
:100EAA005805D200FF305905D300FF305A05D40047
:100EBA007F305B05D50055085404530452040319C6
:100ECA00672F682F6B2FDC01DC0A702F5E1C6E2FD8
:100EDA006F2F702F682F5C080319742F752FA62F98
:100EEA000130DE07003003180130DF070030031835
:100EFA000130E007003003180130E107611C862F3A
:100F0A00872FA62F5E08D2005F08D3006008D4009E
:100F1A006108D5000130D600550DD50CD40CD30C80
:100F2A00D20CD60B912F5508E1005408E000530863
:100F3A00DF005208DE000130E2070318E30A00303E
:100F4A00E3076308803AFF0080307F02031DAF2F5A
:100F5A00FF306202031CB22FB32FBE2F7F308312E1
:100F6A000313E1008030E0000030DF000030DE00D3
:100F7A00EF2F831203136308803AFF0080307F0249
:100F8A00031DC92F013062020318CC2FCD2FD92F90
:100F9A00003083120313E1000030E0000030DF006C
:100FAA000030DE00D701EF2F831203136208DD0041
:100FBA00FF30DE05FF30DF057F30E0050030E10558
:100FCA005D1CE82FE92FEA2FE0175D08D200031015
:100FDA00520CE1005708FF007F08E1046108CD00C8
:100FEA006008CC005F08CB005E08CA0008008301D5
:060FFA000A128A15D52F32
:101F5C00F800F401F5017008F200F3017208F600C4
:101F6C007308F700781CBB2FBC2FC22F7608F40720
:101F7C000318F50A7708F50701300310F60DF70D75
:101F8C00FF3E031DC32F0310F80C7808031DCF2F41
:101F9C00D02FB82F7508F1007408F00008008316D4
:101FAC00031307118711003083120313A9000030AB
:101FBC00A8000330A700E830A6000A128A112820D6
:101FCC000A128A15003083120313EE000230EF0060
:101FDC000A128A1180210A128A150A128A111D20EE
:101FEC000A128A158312031307158711E82F0A1298
:041FFC008A1100281E
:04400E00F22CFF3F52
:00000001FF
