:100000000A128A11F02F00308A000408840A82073D
:0C0010000034203420342034203400342C
:100C4A00403442340130831203139F0080308316EC
:100C5A0003139F000800F000831203130710871084
:100C6A0007157008880007113A2E3B2E0800F0007D
:100C7A0083120313071487100715700888000711D9
:100C8A00462E472E0800831203139F149F184E2ED8
:100C9A004F2E4B2E1E08F100831603131E08F00078
:100CAA0008000C300A128A1130260A128A113830CA
:100CBA000A128A1130260A128A1180300A128A11FF
:100CCA0030260A128A110800F20010307202031844
:100CDA006F2E702E892E7108031D742E752E7D2E8F
:100CEA007208803E0A128A1130260A128A11892E47
:100CFA007103031D812E822E892E7208C03E0A12AC
:100D0A008A1130260A128A110800F100F201F30151
:100D1A00F201F301A32E7208710784000A128A11E4
:100D2A0003200A128A110A128A113C260A128A110F
:100D3A000130F2070318F30A0030F307720871074B
:100D4A0084000A128A1103200A128A11003A031D2A
:100D5A00AF2EB02E902E0800700871040319B62E1B
:100D6A00B72EE62EF401F40AC52E01300310F00D59
:100D7A00F10DFF3E031DBB2E0130FF007F08F40773
:100D8A00F11FC82EC92EBA2E71087302031DCF2E69
:100D9A0070087202031CD22ED32ED92E7008F202CA
:100DAA007108031CF303F30201300310F10CF00C79
:100DBA00FF3E031DDA2E0130F402031DE52EE62E56
:100DCA00C92E7308F1007208F0000800F401F50159
:100DDA00700871040319F22EF32E2A2FF601F60A6F
:100DEA00012F01300310F00DF10DFF3E031DF72E08
:100DFA000130FF007F08F607F11F042F052FF62E9A
:100E0A0001300310F40DF50DFF3E031D062F710886
:100E1A007302031D122F70087202031C152F162F5E
:100E2A001D2F7008F2027108031CF303F3027414F5
:100E3A0001300310F10CF00CFF3E031D1E2F013090
:100E4A00F602031D292F2A2F052F7508F1007408B1
:100E5A00F000080083160313870188018312031325
:100E6A0088010A128A1156260A128A110A128A114E
:100E7A0027260A128A1101300A128A1130260A120A
:100E8A008A110A128A1148260A128A117108FD006B
:100E9A007008FC007D08FB007C08FA000310FB0CBC
:100EAA00FA0C7A08FC007B08FD00F10100300A12F6
:100EBA008A1169260A128A117D08F8007C08F7004F
:100ECA000A128A1174270A128A1101300A128A1127
:100EDA008A260A128A11462F0A128A11002800301D
:100EEA0078020A300319770203187C2F7D2F852F89
:100EFA007708303E0A128A113C260A128A11EF2F0D
:100F0A0083120313C201C301C12F0A30F00000305B
:100F1A00F1007808F3007708F2000A128A11B12664
:100F2A000A128A11710883120313C1007008C000E3
:100F3A004208F9007907203E8400400883138000A4
:100F4A00840A410880000A30F0000030F100780875
:100F5A00F3007708F2000A128A11EB260A128A11A4
:100F6A007108F8007008F700013083120313C207F2
:100F7A000318C30A0030C307003078020A30031985
:100F8A0077020318C92FCA2F8A2F4208F900790756
:100F9A00203E8400770883138000840A7808800042
:100FAA00EB2F4208F9007907203E840083130008DA
:100FBA00303E0A128A113C260A128A11FF30831225
:100FCA000313C2070318C30AFF30C307C31FEE2F58
:100FDA00EF2FD62F08000A128A1125260A128A1123
:100FEA00C4000A128A1126260A128A11C500830130
:060FFA000A128A112F2FDC
:04400E00D220FF3F7E
:00000001FF
