:060000000A128A11F02F24
:100BF80000340934831203138C1E032E042EFE2D99
:100C08008C121A080800F0008312031307148710C7
:100C180007157008880007110800F00083120313F5
:100C280007108710071570088800071108000C3096
:100C38000A128A1111260A128A1138300A128A11E8
:100C480011260A128A1101300A128A1111260A1273
:100C58008A110800F200103072020318342E352E63
:100C68004D2E7108031D392E3A2E412E7208803EF2
:100C78000A128A1111260A128A117103031D452EC0
:100C8800462E4D2E7208C03E0A128A1111260A12EB
:100C98008A110800831603138701880180308312A4
:100CA8000313A6002530A7000A128A1132270A1258
:100CB8008A110A128A111B260A128A11F101F10AF5
:100CC80000300A128A112E260A128A11831203137F
:100CD800A901AA01013083120313A9070318AA0A5C
:100CE8000030AA072A08803AFF0080307F02031DDF
:100CF8007F2E03302902031C822E832E6E2E0A12A9
:100D08008A11FE250A128A1183120313A8002808E3
:100D18000A128A1107260A128A11622E0A128A11E9
:100D2800002883120313A101F31F9B2E9C2EA92ECA
:100D3800F009F109F209F309F00A0319F10A031994
:100D4800F20A0319F30AA101A10AF71FAC2EAD2E6E
:100D5800BC2EF409F509F609F709F40A0319F50A8E
:100D68000319F60A0319F70A0130FF007F08A106E4
:100D78000030A5000030A4000030A3000030A2001D
:100D880073087204710470040319CB2ECC2E192F2A
:100D9800A001A00ADC2E0130F8000310F00DF10DBF
:100DA800F20DF30DF80BD12E0130FF007F08A007DC
:100DB800F31FDF2EE02ECF2E0130F8000310A20D16
:100DC800A30DA40DA50DF80BE22E73087702031DE1
:100DD800F72E72087602031DF72E71087502031D9F
:100DE800F72E70087402031CFA2EFB2E0A2F7008C7
:100DF800F4027108031C710FF5027208031C720FCC
:100E0800F6027308031C730FF70222140130031053
:100E1800F30CF20CF10CF00CFF3E031D0B2F01300C
:100E2800A002031D182F192FE02E210803191D2FCA
:100E38001E2F292FA209A309A409A509A20A03198B
:100E4800A30A0319A40A0319A50A2508F30024080C
:100E5800F2002308F1002208F000080083160313AB
:100E68000713871718129816831203132708803A56
:100E7800FF00A5307F02031D432F80302602031890
:100E8800462F472F772F831203132608F9002708C8
:100E9800FA000030FA1BFF30FB00FC00063003109C
:100EA800F90DFA0DFB0DFC0DFF3E031D532F7C08B9
:100EB800F3007B08F2007A08F1007908F0000030AE
:100EC800F7003D30F6000930F5000030F4000A1252
:100ED8008A1195260A128A117008FF3E8316031399
:100EE80099001811EB2F831203132708803AFF008B
:100EF800CB307F02031D822F013026020318852F75
:100F0800862FB62F831203132608F9002708FA0044
:100F18000030FA1BFF30FB00FC0004300310F90D11
:100F2800FA0DFB0DFC0DFF3E031D922F7C08F3000C
:100F38007B08F2007A08F1007908F0000030F70029
:100F48003D30F6000930F5000030F4000A128A112D
:100F580095260A128A117008FF3E8316031399001A
:100F68001815EB2F831203132608F9002708FA0037
:100F78000030FA1BFF30FB00FC0002300310F90DB3
:100F8800FA0DFB0DFC0DFF3E031DC22F7C08F3007C
:100F98007B08F2007A08F1007908F0000030F700C9
:100FA8003D30F6000930F5000030F4000A128A11CD
:100FB80095260A128A117008FF3E831603139900BA
:100FC800181583160317871583160313181683122B
:100FD80003139817181608000A128A11FC250A121A
:100FE8008A11AB000A128A11FD250A128A11AC0077
:080FF80083010A128A114E2E3A
:04400E00D220FF3F7E
:00000001FF
