:060000000A128A110C280F
:10000800FE00030EF0000A08F1000A128A11542EAD
:100018000A128A110F28FA01FB0183010A128A11B8
:10002800042E831203134B088039D8004B08D000E4
:100038005007DA00CA1F2128222823285A145A08F0
:1000480003192728282838285A0A031D2C282D2860
:1000580035280030CB000030CA000030C90000301D
:10006800C800CA17CB0140280030CB000030CA00B6
:100078000030C9000030C8004F088039D90059083D
:1000880058060319482849284A2858174F08D00005
:100098005007D900CE1F51285228532859145908FF
:1000A8000319572858286828590A031D5C285D2811
:1000B80065280030CF000030CE000030CD00003081
:1000C800CC00CE17CF0170280030CF000030CE0012
:1000D8000030CD000030CC005A08590203187528AA
:1000E80076289C28581F79287A287E288030FF0097
:1000F8007F08D8065A08DB005908DA005B08D900DF
:100108004808DB004C08C8005B08CC004908DB0045
:100118004D08C9005B08CD004A08DB004E08CA003C
:100128005B08CE004B08DB004F08CB005B08CF0014
:10013800DB015908D000D1015108D3005A085002F8
:10014800D200031CD3035308803AFF0080307F029B
:10015800031DB0281A305202031CB328B428EB2818
:10016800831203134B084A0449044804031DBD289D
:10017800BF280130C0280030DB000030CB00003041
:10018800CA000030C9000030C8005908DA00F32856
:100198005B1CCF28D028D7285B08D0000310500C50
:1001A8000138DB00D9280310DB0C481CDC28DD28CB
:1001B800DE28DB170130D0004B0DCB0CCA0CC90C64
:1001C800C80CD00BE0280130FF007F08DA07831243
:1001D800031359085A02031CF228F328CC28581B89
:1001E800F628F72840295A08031DFB28FC2805296A
:1001F8000030CB000030CA000030C9000030C80011
:100208006C2A4C08C8074D0803110318013E03194E
:100218000E29C9074E0803110318013E03191529B1
:10022800CA074F0803110318013E03191C29CB07FD
:100238004B1C1F292029F4295B1C232924292B293D
:100248005B08D0000310500C0138DB002D29031087
:10025800DB0C481C302931293229DB170130D0004A
:100268004B0DCB0CCA0CC90CC80CD00B342901306F
:10027800FF007F08DA07F4294B08803AFF004F088F
:10028800803A7F02031D52294E084A02031D522953
:100298004D084902031D52294C08480203185529E4
:1002A8005629AE29FF30D000FF30D100FF30D200F0
:1002B800FF30D3004C08D4004D08D5004E08D600B6
:1002C8004F08D7004808D4024908031C490F6D2974
:1002D8006E29D5024A08031C4A0F73297429D602CD
:1002E8004B08031C4B0F79297A29D7025408D007E9
:1002F80055080318550F81298229D1075608031874
:10030800560F87298829D20757080318570AD30791
:100318005308CB005208CA005108C9005008C80049
:100328008030FF007F08D806DB09DB0A5B08031D65
:100338009E299F29BC290130C807003003180130C5
:10034800C907003003180130CA070030031801300C
:10035800CB07BC294C08C8024D08031C4D0FC90225
:100368004E08031C4E0FCA024F08031C4F0FCB0246
:100378004B084A0449044804031DC329C429F02929
:100388005B08031DC829C929F0290030CB000030BB
:10039800CA000030C9000030C8006C2A0130D00003
:1003A8000310C80DC90DCA0DCB0DD00BD429DB1F06
:1003B800DE29DF29E02948145B1CE329E429E72921
:1003C8000314DB0DE9290310DB0D5A080319ED2985
:1003D800EE29F0290130DA02CA1FF329F429D229BB
:1003E800D901DB1FF829F929072A5B087F39031986
:1003F800FE29FF29022AD901D90A072A481C052AF9
:10040800062A072AFF29590803190B2A0C2A402A09
:100418000130C807003003180130C907003003183D
:100428000130CA07003003180130CB074B1C1D2AC6
:100438001E2A402A4808D0004908D1004A08D2009C
:100448004B08D3000130D400530DD30CD20CD10C7F
:10045800D00CD40B282A5308CB005208CA005108E4
:10046800C9005008C8005A0A03193B2A3C2A402AE6
:100478000130FF007F08DA075A0A0319442A452A7F
:100488004A2A5A08031D492A4A2A582A0030CB000A
:100498000030CA000030C9000030C8005A08031DE7
:1004A800562A572A582AD8015A1C5B2A5C2A5E2ADF
:1004B800CA17622A7F30FF007F08CA055A08D00091
:1004C8000310500CCB00D81F6A2A6B2A6C2ACB1752
:1004D80008008312031335088039BF003508B600B9
:1004E8003607C600B41F792A7A2A7B2A461446089A
:1004F80003197F2A802A902A460A031D842A852AFE
:100508008D2A0030B5000030B4000030B300003050
:10051800B200B417B501982A0030B5000030B40015
:100528000030B3000030B20031088039FF007F0886
:10053800BF063108B6003607C700B01FA42AA52A8F
:10054800A62A471447080319AA2AAB2ABB2A470A2E
:10055800031DAF2AB02AB82A0030B1000030B0001D
:100568000030AF000030AE00B017B101C32A003030
:10057800B1000030B0000030AF000030AE003108EC
:1005880030042F042E04031DCA2ACB2AE42A003083
:10059800B5000030B4000030B3000030B200803045
:1005A800B4047F30B5043F08FF007F08B504350860
:1005B800B1003408B0003308AF003208AE003B2C5D
:1005C8004608031DE82AE92AF22A0030B100003063
:1005D800B0000030AF000030AE003B2C4608B6003B
:1005E800B7013708B90047083602B800031CB90339
:1005F80038087F3EC00039080318013E003EC1009C
:100608003508BE003408BD003308BC003208BB0002
:100618000030B5000030B4000030B3000030B20044
:100628000030C5000030C4000030C3000030C200F4
:10063800C701682B47080319222B232B432B0130B2
:10064800B6000310BB0DBC0DBD0DBE0DB60B252BA2
:100658000130B6000310B20DB30DB40DB50DB60BD5
:100668002E2BC51F382B392B3A2B32140130B600EC
:100678000310C20DC30DC40DC50DB60B3C2B3108BC
:100688003E02031D512B30083D02031D512B2F083C
:100698003C02031D512B2E083B02031C542B552BE7
:1006A800642B45172E08BB022F08031C2F0FBC0212
:1006B8003008031C300FBD023108031C310FBE0285
:1006C8000130FF007F08C7071A304702031C6D2B53
:1006D8006E2B1E2B3E083D043C043B040319752B6E
:1006E800762B952B4214952B0130B6000310B20DD2
:1006F800B30DB40DB50DB60B7A2BC51F842B852B06
:10070800862B32140130B6000310C20DC30DC40D80
:10071800C50DB60B882BFF30C0070318C10AFF3080
:10072800C107B41F982B992B782BC701C51F9D2B88
:100738009E2BBA2BFF304205B600FF304305B700A9
:10074800FF304405B8007F304505B9003908380442
:10075800370436040319B12BB22BB52BC701C70ACE
:10076800BA2B321CB82BB92BBA2BB22B470803195A
:10077800BE2BBF2BF02B0130B2070030031801301D
:10078800B307003003180130B407003003180130F4
:10079800B507351CD02BD12BF02B3208B600330807
:1007A800B7003408B8003508B9000130BA00390D6F
:1007B800B90CB80CB70CB60CBA0BDB2B3908B50062
:1007C8003808B4003708B3003608B2000130C00753
:1007D8000318C10A0030C1074108803AFF00803081
:1007E8007F02031DF92BFF304002031CFC2BFD2B5D
:1007F8000B2CFF3083120313C0000030C1000030FF
:10080800B5000030B4000030B3000030B2008312ED
:1008180003134108803AFF0080307F02031D162C25
:10082800013040020318192C1A2C272C83120313A9
:10083800C001C1010030B5000030B4000030B30081
:100848000030B200BF01831203134008C600461CE3
:100858002E2C2F2C312CB417352C7F30FF007F081D
:10086800B4054608B6000310360CB500D72A0800B0
:1008780083120313A80028080319432C442C582C6E
:10088800A31F472C482C582C2009AA002109AB008B
:100898002209AC002309AD00AA0A0319AB0A0319FF
:1008A800AC0A0319AD0A602C2308AD002208AC007D
:1008B8002108AB002008AA002308220421042004F0
:1008C800031D672C682C712C0030A3000030A20097
:1008D8000030A1000030A000F52C9630A900812C32
:1008E8000130FF007F08A90701300310AD0CAC0CE4
:1008F800AB0CAA0CFF3E031D792CFE302D05031D01
:10090800862C872C742CA32C0130FF007F08A907A4
:100918000130AA07003003180130AB070030031874
:100928000130AC07003003180130AD070130031067
:10093800AD0CAC0CAB0CAA0CFF3E031D9B2CFF307E
:100948002D05031DA82CA92C882CB52C0130A90233
:100958000130A4000310AA0DAB0DAC0DAD0DA40B16
:10096800AE2CAC1BB82CB92CBF2C023029020318B2
:10097800BE2CBF2CAA2C2918C22CC32CCB2CFF3080
:10098800AA05FF30AB057F30AC05FF30AD0503107D
:10099800A90C2908A400A501A601A7011830031075
:1009A800A40DA50DA60DA70DFF3E031DD32C2408ED
:1009B800AA042508AB042608AC042708AD042808B7
:1009C8000319E72CE82CED2CA31FEB2CEC2CED2CB9
:1009D800AD172D08A3002C08A2002B08A1002A0897
:1009E800A00008000310831203135E0D5F0DF900C9
:1009F8007908031D002D012D0A2D0030DF0000307D
:100A0800DE000030DD000030DC006D2D5C08E00009
:100A18005D08E1005E08E2005F08E3001F30031094
:100A2800E30CE20CE10CE00CFF3E031D132D600803
:100A3800F800DE17FF30DC05FF30DD05FF30DE058E
:100A48000030DF059630F902F91F2B2D2C2D462D8D
:100A58007908803A973E0318322D332D342D012D15
:100A680001300310DF0CDE0CDD0CDC0CFF3E031D37
:100A7800352D0130FF007F08F907031D442D452D52
:100A8800342D5D2D20307902031C4B2D4C2D582D13
:100A9800012D0130E0000310DC0DDD0DDE0DDF0D52
:100AA800E00B4F2D0130F9027908031D5C2D5D2DF7
:100AB8004D2D78080319612D622D6D2DDC09DD0996
:100AC800DE09DF09DC0A0319DD0A0319DE0A031946
:100AD800DF0A08000A30F4000030F500831203131F
:100AE8006508F3006408F2000A128A112F260A1218
:100AF8008A11720883120313A0007308A100003042
:100B0800A11BFF30A200A30001300A128A113C2465
:100B18000A128A11831203132308B5002208B400AD
:100B28002108B3002008B2004330B1003430B000CF
:100B38000030AF000030AE000A128A116D220A128E
:100B48008A11831203133108CF003008CE002F0812
:100B5800CD002E08CC004130CB002030CA00003038
:100B6800C9000030C8000A128A1115200A128A1119
:100B7800831203134B08DF004A08DE004908DD0032
:100B88004808DC000A128A11F6240A128A11831214
:100B980003135D08E5005C08E4000800FB1BD52D85
:100BA800D62DE92D7B08803AF4007308803A740248
:100BB800031DE02D72087A020318E32DE42DE92DB8
:100BC8000130831203138800032E7B08803AFF004C
:100BD80080307F02031DF22DBE307A020318F52DF6
:100BE800F62DFA2D831203138801032EBE307A06E0
:100BF8007B04031D002E012E032EFA01FB010800C1
:100C08008316031388018312031388010A128A11B9
:100C18006A260A128A115A3083120313E40000303C
:100C2800E5000A128A116E250A128A11831203132B
:100C38006508E7006408E600831203136708F300F9
:100C48006608F2000A128A11D2250A128A11202E89
:100C58000A128A110C28F601F701721C342E352E5F
:100C68003B2E7408F6070318F70A7508F7070130D2
:100C78000310F40DF50DFF3E031D3C2E013003104B
:100C8800F30CF20CFF3E031D432E72087304031D80
:100C98004E2E4F2E312E7708F3007608F20008000A
:100CA8000B1D572E582E632E0130FA070318FB0A26
:100CB8000030FB07FB308312031381000B1171080E
:100CC8008A00700E8300FE0E7E0E09008B168B17AD
:100CD8008316031381120112811101118114011469
:0A0CE800FB308312031381000800A3
:04400E00D220FF3F7E
:00000001FF
