:100000000A128A11F02F00308A000408840A82073D
:10001000003463346F3475346E3474343D340034DA
:100C780000340934F0008312031307108710071596
:100C88007008860007110800F00083120313071488
:100C98008710071570088600071108000C300A1223
:100CA8008A113E260A128A1138300A128A113E2603
:100CB8000A128A1101300A128A113E260A128A1172
:100CC80080300A128A113E260A128A110800F200A0
:100CD800103072020318712E722E8B2E7108031DAC
:100CE800762E772E7F2E7208803E0A128A113E26B3
:100CF8000A128A118B2E7103031D832E842E8B2ECC
:100D08007208C03E0A128A113E260A128A11080089
:100D1800F100F201F301F201F301A52E7208710747
:100D280084000A128A1103200A128A110A128A11EF
:100D380048260A128A110130F2070318F30A003014
:100D4800F3077208710784000A128A1103200A1235
:100D58008A11003A031DB12EB22E922E0800700897
:100D680071040319B82EB92EE82EF401F40AC72E1F
:100D780001300310F00DF10DFF3E031DBD2E0130B3
:100D8800FF007F08F407F11FCA2ECB2EBC2E710876
:100D98007302031DD12E70087202031CD42ED52EA7
:100DA800DB2E7008F2027108031CF303F302013012
:100DB8000310F10CF00CFF3E031DDC2E0130F40291
:100DC800031DE72EE82ECB2E7308F1007208F00001
:100DD800080083160313870186010130880001305B
:100DE80083120313880086010A128A1152260A12F6
:100DF8008A11FA01FB01F10100300A128A116B26EF
:100E08000A128A1101300A128A118C260A128A11D2
:100E1800F10106300A128A116B260A128A117B0820
:100E2800F8007A08F7000A128A1174270A128A1140
:100E3800831203130818212F222FFF2E0130FA07DF
:100E48000318FB0A0030FB07081C2B2F2C2F282F18
:100E5800FF2E0A128A110028F401F50170087104A6
:100E68000319372F382F6F2FF601F60A462F013056
:100E78000310F00DF10DFF3E031D3C2F0130FF0064
:100E88007F08F607F11F492F4A2F3B2F0130031027
:100E9800F40DF50DFF3E031D4B2F71087302031D62
:100EA800572F70087202031C5A2F5B2F622F70088D
:100EB800F2027108031CF303F302741401300310E7
:100EC800F10CF00CFF3E031D632F0130F602031DE9
:100ED8006E2F6F2F4A2F7508F1007408F000080074
:100EE800003078020A300319770203187C2F7D2F0F
:100EF800852F7708303E0A128A1148260A128A116D
:100F0800EF2F83120313C201C301C12F0A30F0006F
:100F18000030F1007808F3007708F2000A128A110D
:100F2800B3260A128A11710883120313C1007008CC
:100F3800C0004208F9007907203E84004008831366
:100F48008000840A410880000A30F0000030F10077
:100F58007808F3007708F2000A128A1130270A127B
:100F68008A117108F8007008F70001308312031322
:100F7800C2070318C30A0030C307003078020A30DA
:100F8800031977020318C92FCA2F8A2F4208F900BC
:100F98007907203E8400770883138000840A780844
:100FA8008000EB2F4208F9007907203E8400831364
:100FB8000008303E0A128A1148260A128A11FF30A8
:100FC80083120313C2070318C30AFF30C307C31FE2
:100FD800EE2FEF2FD62F08000A128A113C260A128C
:100FE8008A11FC000A128A113D260A128A11FD0094
:080FF80083010A128A11ED2E9B
:04400E00F223FF3F5B
:00000001FF
