:100000000A128A11F02F00308A000408840A82073D
:100010000034203420342034203420342034203460
:100020002034203420342034203420342034203430
:10003000003431342E3457347234693474346534B6
:10004000203445344534503452344F344D34003428
:1000500032342E34523465346134643420344534BF
:100060004534503452344F344D34003457345234C4
:1000700049345434453420344534453450345234B2
:100080004F344D3400346C34653420347434683467
:1000900061346E3468342034743472346134003422
:1000A00044344F344E344534203457345234493478
:1000B00054344534003444346F346334203445348C
:1000C0004534503452344F344D3400345334743446
:0800D000613472347434003411
:100C3A000034093401300A128A1126260A128A114E
:100C4A000800F000831203130710871007157008B5
:100C5A00860007110800F000831203130714871097
:100C6A0007157008860007110800F0007008831243
:100C7A0003178D00831603178C130C1483120317A2
:100C8A000C08F10071080800F100710883120317BB
:100C9A008D0070088C00831603170C158B135530C2
:100CAA008D00AA308D008C140C11831203130D1EB3
:100CBA005F2E602E5A2E0D1208000C300A128A116D
:100CCA0026260A128A1138300A128A1126260A1290
:100CDA008A1101300A128A1126260A128A118030D4
:100CEA000A128A1126260A128A110800F200103006
:100CFA0072020318812E822E9B2E7108031D862EE6
:100D0A00872E8F2E7208803E0A128A1126260A1210
:100D1A008A119B2E7103031D932E942E9B2E72080B
:100D2A00C03E0A128A1126260A128A110800F30006
:100D3A00F101F201F101F201B52E71087307840085
:100D4A000A128A1103200A128A110A128A113026FB
:100D5A000A128A110130F1070318F20A0030F20769
:100D6A007108730784000A128A1103200A128A1171
:100D7A00003A031DC12EC22EA22E0800F300F40170
:100D8A00F501F401F501DF2E7408720784000A12D6
:100D9A008A1103200A128A11F000740873070A12D2
:100DAA008A1149260A128A110130F4070318F50A32
:100DBA000030F5077408720784000A128A110320AA
:100DCA000A128A11003A031DEB2EEC2EC92E0800D6
:100DDA0083160313860107108710071187118312E0
:100DEA000313871583160313871707170A128A1125
:100DFA0062260A128A11F10100300A128A117B2630
:100E0A000A128A115E300A128A119C260A128A1163
:100E1A000330F8008A30F7005530F600F60B132F2E
:100E2A00F70B132FF80B132F1A2FF10100300A12A8
:100E3A008A117B260A128A1111300A128A119C26FB
:100E4A000A128A11F101F10A00300A128A117B266C
:100E5A000A128A1120300A128A119C260A128A1151
:100E6A0083120313871B3A2F3B2F892F871F3E2F8D
:100E7A003F2F3B2FF10100300A128A117B260A12FA
:100E8A008A112E300A128A119C260A128A113B30C4
:100E9A00F20000300A128A11C3260A128A1103309C
:100EAA00F8008A30F7005530F600F60B5A2FF70B88
:100EBA005A2FF80B5A2F612FF10100300A128A11AA
:100ECA007B260A128A1101300A128A119C260A12FA
:100EDA008A110A128A111F260A128A118230F70011
:100EEA00DD30F600F60B772FF70B772F7C2FF10109
:100EFA0000300A128A117B260A128A1148300A1215
:100F0A008A119C260A128A1183120313071B8E2F39
:100F1A008F2F352F071F922F932F8F2FB001B101DB
:100F2A00F10100300A128A117B260A128A11533003
:100F3A000A128A119C260A128A110330F8008A3092
:100F4A00F7005530F600F60BA82FF70BA82FF80B71
:100F5A00A82FAF2FF10100300A128A117B260A123C
:100F6A008A1101300A128A119C260A128A11F10189
:100F7A0000300A128A117B260A128A11831203137D
:100F8A003008203E840030080A128A113A260A12D2
:100F9A008A1183138000831203133008203E8400D1
:100FAA00000A031DD92FDA2FDB2F352F3008203EF8
:100FBA00840000080A128A1130260A128A110130A6
:100FCA0083120313B0070318B10A0030B107C32F05
:100FDA000A128A1100280A128A111D260A128A1177
:100FEA00F9000A128A111E260A128A11FA008301CE
:060FFA000A128A11ED2E1F
:04400E003223FF3F1B
:00000001FF
