:100000000A128A11DE2F00308A000408840A82074F
:1000100000344E34683461346E34203470346834C3
:0600200069346D34003468
:100D42000034093401300A128A11AA260A128A11C1
:100D52000800F000831203130710871007157008AC
:100D6200860007110800F00083120313071487108E
:100D720007157008860007110800373438343934F3
:100D82002F343434353436347834313432343334E5
:100D92002D342A3430343D342B347E088A007F08C7
:100DA20082000A128A11CE260A128A118000840A4F
:100DB20004087D0603190034FF0A0319FE0AD22E25
:100DC2000C300A128A11AA260A128A1138300A1223
:100DD2008A11AA260A128A1101300A128A11AA2637
:100DE2000A128A1180300A128A11AA260A128A115C
:100DF2000800F200103072020318002F012F1A2F80
:100E02007108031D052F062F0E2F7208803E0A124D
:100E12008A11AA260A128A111A2F7103031D122F90
:100E2200132F1A2F7208C03E0A128A11AA260A121A
:100E32008A110800F100F201F301F201F301342FEB
:100E42007208710784000A128A1103200A128A1199
:100E52000A128A11B4260A128A110130F207031803
:100E6200F30A0030F3077208710784000A128A112C
:100E720003200A128A11003A031D402F412F212F0D
:100E82000800F101F2010130F000710A4A2F03104B
:100E9200F00DFF3E031D482F7008831203138800D4
:100EA2000430F00071087002F70072090318013E65
:100EB200F800081E5D2F5E2F632F0430F90000300A
:100EC200FA008C2F881E662F672F6C2F0330F900D3
:100ED2000030FA008C2F081F6F2F702F752F0230F1
:100EE200F9000030FA008C2F881F782F792F7E2F7F
:100EF2000130F9000030FA008C2F0130F10703189D
:100F0200F20A0030F207043071067204031D8A2FC0
:100F12008B2F442F422F080083160313860187016B
:100F2200F03088000A128A11E1260A128A11F101B0
:100F320000300A128A11FA260A128A1101300A12A4
:100F42008A111B270A128A110330F6008A30F50033
:100F52005530F400F40BAB2FF50BAB2FF60BAB2F88
:100F6200B22F0A128A11A3260A128A110A128A11B0
:100F720042270A128A11F10100300A128A11FA2656
:100F82000A128A117908F40002300310F40DFF3EB0
:100F9200031DC62F1B307407F50077087507F6008E
:100FA20076088400831300080A128A11B4260A12F2
:100FB2008A11B72F0A128A11002883133030FD00DC
:100FC2000630FE00BE30FF00203084000A128A1173
:100FD200D2260A128A110A128A11A1260A128A112B
:100FE200FB000A128A11A2260A128A11FC00F701DA
:0E0FF200F801F901FA0183010A128A118D2F0C
:04400E003223FF3F1B
:00000001FF
